:0400000046EF36F0A1
:106C7A00080E53EC36F012009EAAFED7ADEC36F0A1
:106C8A001200086A000EF86E0001A4EF37F0056ED4
:106C9A0005C003F0030EBCEC36F01200056E05C009
:106CAA0003F0010EBCEC36F01200056E05C003F0CD
:106CBA00020EBCEC36F012000C0E53EC36F0BF0E8E
:106CCA005AEC36F01200C5CF01F01F0E0116D8A4F7
:106CDA00FAD7C7A41200F7D7016EACAC03D0AC90B8
:106CEA0008B2AC8001C0ADFF1200310EC86E800E32
:106CFA00016E080E9EEC36F068EC36F012009E9A91
:106D0A009F9A9D9AF29C000E026E0A0E016E3C0E2C
:106D1A00D0EC37F01200C6500F0B080AD8B404D0D2
:106D2A00C6500F0B0B0AD8B4C586C7A0FED7C950E8
:106D3A001200026E3F0EC716000EC66E000EC56E1A
:106D4A000250C6120150C71294869488C68A12004D
:106D5A00F20E0816ABAC03D00890ABB00880ABB407
:106D6A000884ABB20886AECF01F001501200046E5F
:106D7A0068EC36F0C580C5B0FED7C5B0FED7880E20
:106D8A0055EC37F068EC36F0045055EC37F068EC07
:106D9A0036F0035055EC37F068EC36F0C584C5A4DC
:106DAA001200FDD7000E066E0B0E53EC36F00F0ED6
:106DBA004CEC36F07BEC37F0060AD8A4FBD73DEC56
:106DCA0036F00D0E31EC37F0066E065071EC36F0E7
:106DDA000E0E31EC37F0066E065071EC36F01200EA
:106DEA00000E066E090E53EC36F00D0E4CEC36F022
:106DFA007BEC37F0060AD8A4FBD73DEC36F0090E37
:106E0A0031EC37F0066E065071EC36F00A0E31ECB2
:106E1A0037F0066E065071EC36F01200000E066E60
:106E2A000A0E53EC36F00E0E4CEC36F07BEC37F0D3
:106E3A00060AD8A4FBD73DEC36F00B0E31EC37F03E
:106E4A00066E065071EC36F00C0E31EC37F0066E19
:106E5A00065071EC36F01200036E68EC36F0C5800D
:106E6A00C5B0FED7C5B0FED7880E55EC37F068EC32
:106E7A0036F0035055EC37F068EC36F0C582C5B2EF
:106E8A00FED7C5B2FED7890E55EC37F068EC36F05E
:106E9A0090EC36F0046EC584C5B4FED704501200D7
:106EAA00026E02C0C9FFC6BE1200C6500F0B080A06
:106EBA00D8B40CD0C6500F0B0B0AD8B407D0C6886A
:106ECA009EA6FED7C7B41200C7501200C6500F0BB9
:106EDA00080AD8B405D0C6500F0B0B0AD8A4120062
:106EEA00C7B0FED768EC36F0C5501200080E31EC78
:106EFA0037F0056E020E0518D8A402D0000E120053
:106F0A00040E0518D8A402D0010E1200100E05189E
:106F1A00D8A402D0020E1200200E0518D8A402D05E
:106F2A00030E1200300E0518D8A402D0040E120067
:106F3A000504D8A402D0050E1200060E1200949C75
:106F4A00948E9486948884EC36F07AEC36F061EC70
:106F5A0036F041EC36F0076E10D013EC37F0F9D763
:106F6A00F5EC36F0F6D7D7EC36F0F3D713EC37F06A
:106F7A00F5EC36F0D7EC36F0ECD70750410AD8B426
:106F8A00F5D7030AD8B4EFD7050AD8B4E9D7150A52
:106F9A00D8B4E3D7DED7036E000EAC6E000EAB6E2C
:106FAA0003B0AC8803A202D0AC8CAB8C03B4AC8E19
:106FBA0003A602D0AB8801D0AB8A03B8AC849E98F2
:106FCA0003BAAB8603AC02D09D8A01D09D9A9E9AE1
:106FDA0003AE02D09D8801D09D9801C0AFFF025038
:106FEA00B06EAC8AAB8E949C948EACA81200ACBEE8
:066FFA001200948C12004D
:020000040020DA
:08000000FFFFFFFFFFFFFFFF00
:020000040030CA
:0E000000FF071F1EFF8285FF0FC00FE00F409D
:00000001FF
