:0400000046EF3EF099
:107C7A00080E53EC3EF012009EAAFED7ADEC3EF081
:107C8A001200086A000EF86E0001A4EF3FF0056EBC
:107C9A0005C003F0030EBCEC3EF01200056E05C0F1
:107CAA0003F0010EBCEC3EF01200056E05C003F0B5
:107CBA00020EBCEC3EF012000C0E53EC3EF0BF0E6E
:107CCA005AEC3EF01200C5CF01F01F0E0116D8A4DF
:107CDA00FAD7C7A41200F7D7016EACAC03D0AC90A8
:107CEA0008B2AC8001C0ADFF1200310EC86E800E22
:107CFA00016E080E9EEC3EF068EC3EF012009E9A71
:107D0A009F9A9D9AF29C000E026E0A0E016E3C0E1C
:107D1A00D0EC3FF01200C6500F0B080AD8B404D0BA
:107D2A00C6500F0B0B0AD8B4C586C7A0FED7C950D8
:107D3A001200026E3F0EC716000EC66E000EC56E0A
:107D4A000250C6120150C71294869488C68A12003D
:107D5A00F20E0816ABAC03D00890ABB00880ABB4F7
:107D6A000884ABB20886AECF01F001501200046E4F
:107D7A0068EC3EF0C580C5B0FED7C5B0FED7880E08
:107D8A0055EC3FF068EC3EF0045055EC3FF068ECDF
:107D9A003EF0035055EC3FF068EC3EF0C584C5A4B4
:107DAA001200FDD7000E066E0B0E53EC3EF00F0EBE
:107DBA004CEC3EF07BEC3FF0060AD8A4FBD73DEC36
:107DCA003EF00D0E31EC3FF0066E065071EC3EF0BF
:107DDA000E0E31EC3FF0066E065071EC3EF01200CA
:107DEA00000E066E090E53EC3EF00D0E4CEC3EF002
:107DFA007BEC3FF0060AD8A4FBD73DEC3EF0090E17
:107E0A0031EC3FF0066E065071EC3EF00A0E31EC92
:107E1A003FF0066E065071EC3EF01200000E066E40
:107E2A000A0E53EC3EF00E0E4CEC3EF07BEC3FF0AB
:107E3A00060AD8A4FBD73DEC3EF00B0E31EC3FF01E
:107E4A00066E065071EC3EF00C0E31EC3FF0066EF9
:107E5A00065071EC3EF01200036E68EC3EF0C580ED
:107E6A00C5B0FED7C5B0FED7880E55EC3FF068EC1A
:107E7A003EF0035055EC3FF068EC3EF0C582C5B2C7
:107E8A00FED7C5B2FED7890E55EC3FF068EC3EF03E
:107E9A0090EC3EF0046EC584C5B4FED704501200BF
:107EAA00026E02C0C9FFC6BE1200C6500F0B080AF6
:107EBA00D8B40CD0C6500F0B0B0AD8B407D0C6885A
:107ECA009EA6FED7C7B41200C7501200C6500F0BA9
:107EDA00080AD8B405D0C6500F0B0B0AD8A4120052
:107EEA00C7B0FED768EC3EF0C5501200080E31EC60
:107EFA003FF0056E020E0518D8A402D0000E12003B
:107F0A00040E0518D8A402D0010E1200100E05188E
:107F1A00D8A402D0020E1200200E0518D8A402D04E
:107F2A00030E1200300E0518D8A402D0040E120057
:107F3A000504D8A402D0050E1200060E1200949C65
:107F4A00948E9486948884EC3EF07AEC3EF061EC50
:107F5A003EF041EC3EF0076E10D013EC3FF0F9D73B
:107F6A00F5EC3EF0F6D7D7EC3EF0F3D713EC3FF042
:107F7A00F5EC3EF0D7EC3EF0ECD70750410AD8B406
:107F8A00F5D7030AD8B4EFD7050AD8B4E9D7150A42
:107F9A00D8B4E3D7DED7036E000EAC6E000EAB6E1C
:107FAA0003B0AC8803A202D0AC8CAB8C03B4AC8E09
:107FBA0003A602D0AB8801D0AB8A03B8AC849E98E2
:107FCA0003BAAB8603AC02D09D8A01D09D9A9E9AD1
:107FDA0003AE02D09D8801D09D9801C0AFFF025028
:107FEA00B06EAC8AAB8E949C948EACA81200ACBED8
:067FFA001200948C12003D
:020000040020DA
:08000000FFFFFFFFFFFFFFFF00
:020000040030CA
:0E000000FF071F1EFF8285FF0FC00FE00F409D
:00000001FF
